:020000020000fc
:0100000000ff
:0100010003fb
:0100020003fa
:0100030003f9
:0100040003f8
:0100050003f7
:0100060000f9
:0100070000f8
:0100080000f7
:0100090003f3
:01000a0001f4
:01000b0002f2
:01000c0000f3
:01000d0002f0
:01000e0001f0
:01000f0002ee
:0100100002ed
:0100110003eb
:0100120001ec
:0100130002ea
:0100140003e8
:0100150003e7
:0100160000e9
:0100170003e5
:0100180003e4
:0100190000e6
:01001a0002e3
:01001b0002e2
:01001c0003e0
:01001d0003df
:01001e0002df
:01001f0003dd
:0100200002dd
:0100210002dc
:0100220000dd
:0100230000dc
:0100240001da
:0100250003d7
:0100260000d9
:0100270000d8
:0100280002d5
:0100290001d5
:01002a0001d4
:01002b0002d2
:01002c0003d0
:01002d0002d0
:01002e0000d1
:01002f0000d0
:0100300001ce
:0100310001cd
:0100320001cc
:0100330002ca
:0100340003c8
:0100350003c7
:0100360003c6
:0100370001c7
:0100380002c5
:0100390003c3
:01003a0000c5
:01003b0002c2
:01003c0003c0
:01003d0002c0
:01003e0002bf
:01003f0002be
:0100400002bd
:0100410003bb
:0100420001bc
:0100430001bb
:0100440003b8
:0100450002b8
:0100460001b8
:0100470002b6
:0100480000b7
:0100490002b4
:01004a0003b2
:01004b0002b2
:01004c0000b3
:01004d0000b2
:01004e0003ae
:01004f0000b0
:0100500000af
:0100510003ab
:0100520000ad
:0100530001ab
:0100540003a8
:0100550000aa
:0100560001a8
:0100570001a7
:0100580001a6
:0100590003a3
:01005a0000a5
:01005b0000a4
:01005c0003a0
:01005d0002a0
:01005e0001a0
:01005f00029e
:01006000019e
:01006100019d
:01006200029b
:010063000399
:010064000299
:010065000298
:010066000396
:010067000296
:010068000394
:010069000195
:01006a000095
:01006b000391
:01006c000390
:01006d000191
:01006e000190
:01006f00018f
:01007000018e
:01007100028c
:01007200018c
:010073000389
:010074000388
:010075000288
:010076000386
:010077000286
:010078000285
:010079000284
:01007a000283
:01007b000183
:01007c000083
:01007d000181
:01007e00037e
:01007f00017f
:01008000037c
:01008100017d
:01008200027b
:01008300017b
:010084000378
:01008500007a
:010086000178
:010087000375
:010088000275
:010089000175
:01008a000174
:01008b000074
:01008c000073
:01008d000072
:01008e000170
:01008f00016f
:01009000016e
:01009100026c
:01009200016c
:010093000369
:01009400016a
:010095000169
:010096000267
:010097000068
:010098000067
:010099000264
:01009a000065
:01009b000361
:01009c000162
:01009d000161
:01009e00025f
:01009f00025e
:0100a000025d
:0100a100025c
:0100a200005d
:0100a3000359
:0100a400015a
:0100a5000258
:0100a6000356
:0100a7000157
:0100a8000255
:0100a9000056
:0100aa000055
:0100ab000054
:0100ac000152
:0100ad00034f
:0100ae00024f
:0100af000050
:0100b000004f
:0100b100014d
:0100b200004d
:0100b300024a
:0100b400004b
:0100b5000149
:0100b6000148
:0100b7000345
:0100b8000245
:0100b9000244
:0100ba000342
:0100bb000143
:0100bc000340
:0100bd000240
:0100be000140
:0100bf00013f
:0100c000033c
:0100c100013d
:0100c200023b
:0100c300003c
:0100c400013a
:0100c500003a
:0100c6000336
:0100c7000335
:0100c8000235
:0100c9000333
:0100ca000134
:0100cb000331
:0100cc000231
:0100cd000032
:0100ce00022f
:0100cf00022e
:0100d000022d
:0100d100002e
:0100d200012c
:0100d300012b
:0100d400002b
:0100d5000228
:0100d6000227
:0100d7000127
:0100d8000126
:0100d9000224
:0100da000223
:0100db000321
:0100dc000122
:0100dd00031f
:0100de00021f
:0100df00021e
:0100e000021d
:0100e100011d
:0100e200001d
:0100e300001c
:0100e400001b
:0100e500001a
:0100e6000118
:0100e7000018
:0100e8000314
:0100e9000016
:0100ea000015
:0100eb000113
:0100ec000112
:0100ed000012
:0100ee00030e
:0100ef00030d
:0100f000000f
:0100f100000e
:0100f200020b
:0100f300000c
:0100f4000308
:0100f500000a
:0100f6000009
:0100f7000107
:0100f8000007
:0100f9000303
:0100fa000104
:0100fb000301
:0100fc000003
:0100fd000101
:0100fe0003fe
:0100ff0003fd
:00000001FF
